:100000000C945D000C9485000C9485000C94850084
:100010000C9485000C9485000C9485000C9485004C
:100020000C9485000C9485000C9485000C9485003C
:100030000C9485000C9485000C9485000C9485002C
:100040000C94B8020C9485000C94DA040C941D05F1
:100050000C9485000C9485000C9485000C9485000C
:100060000C9485000C94850000000007000201003C
:100070000003040600000000000000000102040864
:100080001020408001020408102001020408102002
:10009000040404040404040402020202020203032E
:1000A0000303030300000000250028002B000000CC
:1000B0000000240027002A00D90511241FBECFEF1D
:1000C000D8E0DEBFCDBF11E0A0E0B1E0E2EEFEE09F
:1000D00002C005900D92AC35B107D9F722E0ACE52E
:1000E000B1E001C01D92AC32B207E1F710E0CAEBFB
:1000F000D0E004C02297FE010E946B07C83BD107E5
:10010000C9F70E943B040C946F070C940000CF9237
:10011000DF92EF92FF920F931F93CF93DF938B01A8
:10012000C0E0D0E06C01EE24D7FCE094FE2CC017B8
:10013000D107A4F461E0809102010E940504C70187
:10014000B6010E94250360E0809102010E9405042F
:10015000C701B6010E9425032196E9CFDF91CF9117
:100160001F910F91FF90EF90DF90CF90089561E085
:10017000809102010E94CC0340E855E260E070E00B
:1001800082E891E00E94580564E070E084EF91E01D
:100190000C948700CF93DF9361E070E088EB9BE0E5
:1001A0000E94870082E10E948603EC0183E10E94A5
:1001B0008603D0937401C09373019093720180936E
:1001C000710165E071E082E891E00E946D06609146
:1001D0007301709174014AE050E082E891E00E945E
:1001E0003F076FE071E082E891E00E946D0664E1F4
:1001F00071E082E891E00E946D066091710170915A
:1002000072014AE050E082E891E00E943F0782E8F4
:1002100091E00E94760662E070E088EC90E00E9437
:10022000870060ED77E080E090E00E94250361E0C8
:1002300070E088EB9BE00E94870083E10E948603C8
:1002400090937601809375016EE171E082E891E010
:100250000E946D0660917501709176014AE050E050
:1002600082E891E00E943F0782E891E00E947606D2
:1002700062E070E088EC90E00E94870060ED77E03B
:1002800080E090E00E94250361E070E088EB9BE055
:100290000E94870082E10E948603909378018093F8
:1002A000770167E271E082E891E00E946D0660915B
:1002B0007701709178014AE050E082E891E00E9475
:1002C0003F0782E891E00E94760662E070E088ECE9
:1002D00090E00E9487002091730130917401809119
:1002E000000190910101A901481B590B5093700125
:1002F00040936F01280F391F30936E0120936D01D9
:100300002091710130917201A901481B590B509342
:100310006A0140936901280F391F30936C012093C3
:100320006B0140917701509178019A01281B390B9C
:100330003093680120936701840F951F90936601A5
:10034000809365013093640120936301909362016F
:100350008093610110925C0182E891E0DF91CF917E
:100360000C949104AF92BF92CF92DF92EF92FF92E2
:100370000F931F93CF93DF9382E891E00E94710463
:10038000813721F481E080935D010AC0873719F439
:1003900010925D0105C0853619F481E080935C01FF
:1003A00080915C0181110E94CA0080915D018823C7
:1003B00009F4D0C08EE00E9486038C018FE00E9479
:1003C00086037C0180E10E9486036C0181E10E942A
:1003D00086035C0182E10E948603EC0183E10E94B6
:1003E00086039C0180916F01909170018C179D078D
:1003F000E4F440916D0150916E01C417D507ACF43F
:100400004091690150916A014217530774F4409179
:100410006B0150916C01241735073CF441E0409387
:10042000600110925F0110925E016091670170910E
:10043000680140916301509164016C177D076CF570
:100440006091650170916601C617D70734F54217B0
:10045000530774F4609161017091620126173707A8
:100460003CF41092600161E060935F0110925E01C4
:100470006091690170916A016217730774F4609169
:100480006B0170916C01261737073CF461E06093B3
:100490005E011092600110925F0142175307C4F48D
:1004A0004091610150916201241735078CF48C173B
:1004B0009D0774F480916D0190916E01C817D90762
:1004C0003CF481E080935E011092600110925F0124
:1004D00080916001882331F060E371E082E891E06F
:1004E0000E948A0680915F01882331F066E371E003
:1004F00082E891E00E948A0680915E01882331F0B3
:100500006DE371E082E891E00E948A060C3B1240A4
:100510000CF58CEBE81682E0F80634F462E471E046
:1005200082E891E00E948A068CEBC81682E0D80629
:1005300034F465E471E082E891E00E948A068CEB75
:10054000A81682E0B80634F468E471E082E891E02D
:100550000E948A0682E891E0DF91CF911F910F916E
:10056000FF90EF90DF90CF90BF90AF900C949104EC
:100570001F920F920FB60F9211242F933F938F93D8
:100580009F93AF93BF9380917A0190917B01A0914B
:100590007C01B0917D013091790123E0230F2D374B
:1005A00020F40196A11DB11D05C026E8230F029677
:1005B000A11DB11D2093790180937A0190937B0155
:1005C000A0937C01B0937D0180917E0190917F0189
:1005D000A0918001B09181010196A11DB11D809370
:1005E0007E0190937F01A0938001B0938101BF9120
:1005F000AF919F918F913F912F910F900FBE0F90D0
:100600001F9018953FB7F89480917E0190917F01DB
:10061000A0918001B091810126B5A89B05C02F3F14
:1006200019F00196A11DB11D3FBF6627782F892FB4
:100630009A2F620F711D811D911D42E0660F771F79
:10064000881F991F4A95D1F70895CF92DF92EF92B4
:10065000FF92CF93DF936B017C010E940203EB01B9
:10066000C114D104E104F10479F00E9402036C1B6F
:100670007D0B683E7340A0F381E0C81AD108E10801
:10068000F108C851DC4FECCFDF91CF91FF90EF9094
:10069000DF90CF900895789484B5826084BD84B54E
:1006A000816084BD85B5826085BD85B5816085BD6D
:1006B000EEE6F0E0808181608083E1E8F0E0108286
:1006C000808182608083808181608083E0E8F0E0C7
:1006D000808181608083E1EBF0E0808184608083B1
:1006E000E0EBF0E0808181608083EAE7F0E08081E8
:1006F0008460808380818260808380818160808348
:100700008081806880831092C10008958E3008F047
:100710008E5087702091040190E4299F900111244C
:10072000822B80937C0080917A00806480937A0091
:1007300080917A0086FDFCCF80917800209179002D
:1007400090E0922B0895833081F028F4813099F065
:100750008230A1F008958630A9F08730B9F0843056
:10076000D1F4809180008F7D03C0809180008F77CD
:1007700080938000089584B58F7702C084B58F7D03
:1007800084BD08958091B0008F7703C08091B00040
:100790008F7D8093B0000895CF93DF9390E0FC01AC
:1007A000E458FF4F2491FC01E057FF4F84918823C8
:1007B00049F190E0880F991FFC01E255FF4FA59188
:1007C000B4918C559F4FFC01C591D4919FB7611195
:1007D00008C0F8948C91209582238C938881822381
:1007E0000AC0623051F4F8948C91322F30958323F3
:1007F0008C938881822B888304C0F8948C91822BFF
:100800008C939FBFDF91CF9108950F931F93CF9348
:10081000DF931F92CDB7DEB7282F30E0F901E859FA
:10082000FF4F8491F901E458FF4F1491F901E0570B
:10083000FF4F04910023C9F0882321F069830E94AF
:10084000A3036981E02FF0E0EE0FFF1FEC55FF4F8F
:10085000A591B4919FB7F8948C91611103C0109544
:10086000812301C0812B8C939FBF0F90DF91CF918B
:100870001F910F9108950E944B030E94B700C4E19D
:10088000D5E00E94B2012097E1F30E941405F9CF50
:10089000FC0124853585F901E05CFF4F8081918161
:1008A000329620813181821B930B8F739927089593
:1008B000FC0184859585FC01E05CFF4F40815181FE
:1008C0003296208131814217530741F00190F08127
:1008D000E02DE80FF91F808190E008958FEF9FEFE2
:1008E0000895FC0184859585FC01E05CFF4F408103
:1008F00051813296208131814217530779F0A081CE
:10090000B181A80FB91F8C91208131812F5F3F4F9A
:100910002F7333273183208390E008958FEF9FEF6B
:100920000895FC0181A1882329F0A489B5898C91BF
:1009300086FFFBCF11A20895CF93DF93FC0126859C
:100940003785D901A05CBF4F8D919C91119701967D
:100950008F739927E901CE5BDF4F48815981841756
:100960009507D9F30D90BC91A02DA20FB31F6C93E6
:10097000A685B785A05CBF4F11969C938E93A689E0
:10098000B7892C9181E090E0078C02C0880F991FF5
:100990000A94E2F7282B2C9381E081A30488F5893F
:1009A000E02D80818064808381E090E0DF91CF91B1
:1009B000089508951F920F920FB60F9211242F934E
:1009C0003F934F938F939F93EF93FF938091C0003A
:1009D00082FD1CC04091C60080912802909129029E
:1009E00001968F73992720912A0230912B0282174A
:1009F000930771F0E0912802F0912902E851FE4F2F
:100A00004083909329028093280202C08091C600FF
:100A1000FF91EF919F918F914F913F912F910F9067
:100A20000FBE0F901F90189582E891E00E94480435
:100A3000892B11F00C94D90408951F920F920FB6D0
:100A40000F9211242F933F938F939F93EF93FF93D4
:100A50002091E4013091E5018091E6019091E70158
:100A60002817390731F48091C1008F7D8093C10030
:100A700014C0E091E601F091E701EC55FE4F2081B2
:100A80008091E6019091E70101968F7399279093E9
:100A9000E7018093E6012093C600FF91EF919F91BB
:100AA0008F913F912F910F900FBE0F901F9018952F
:100AB000CF92DF92EF92FF92CF93DF93EC016A0126
:100AC0007B01411581EE580761057105F9F0EC894C
:100AD000FD8981E090E008A002C0880F991F0A9468
:100AE000E2F7808360E079E08DE390E0A701960172
:100AF0000E944707215031094109510956954795F0
:100B000037952795211580E1380798F0EC89FD8904
:100B1000108260E874E88EE190E0A70196010E94DF
:100B20004707215031094109510956954795379595
:100B30002795E889F9893083EA89FB89208319A2FE
:100B4000EE89FF89408181E090E09C010C8C02C01D
:100B5000220F331F0A94E2F7422B4083EE89FF896C
:100B600040819C010D8C02C0220F331F0A94E2F7D2
:100B7000422B4083EE89FF8940819C010E8C02C08C
:100B8000220F331F0A94E2F7422B4083EE89FF893C
:100B900020810F8C02C0880F991F0A94E2F780957C
:100BA00082238083DF91CF91FF90EF90DF90CF90F1
:100BB0000895109285011092840188EE93E0A0E0E0
:100BC000B0E08093860190938701A0938801B09351
:100BD00089018FE491E0909383018093820188EEF4
:100BE00091E090938F0180938E0184EA91E090933D
:100BF00091018093900185EC90E090939301809314
:100C0000920184EC90E0909395018093940180ECA4
:100C100090E0909397018093960181EC90E09093FF
:100C200099018093980182EC90E090939B018093CE
:100C30009A0186EC90E090939D0180939C0184E062
:100C400080939E0183E080939F0187E08093A001C1
:100C500085E08093A10181E08093A2010895CF9265
:100C6000DF92EF92FF920F931F93CF93DF936C016C
:100C70007A01EB01E60EF71E00E010E0CE15DF056D
:100C800061F06991D601ED91FC910190F081E02D28
:100C9000C6010995080F191FF1CFC801DF91CF9147
:100CA0001F910F91FF90EF90DF90CF900895611505
:100CB000710581F0DB010D900020E9F7AD01415095
:100CC0005109461B570BDC01ED91FC910280F38129
:100CD000E02D099480E090E008950C945706DC0123
:100CE000ED91FC910190F081E02D09940F931F93F9
:100CF000CF93DF93EC016DE00E946F068C016AE0F8
:100D0000CE010E946F06800F911FDF91CF911F913E
:100D10000F9108950F931F93CF93DF93EC010E94DF
:100D200057068C01CE010E947606800F911FDF913D
:100D3000CF911F910F9108958F929F92AF92BF9282
:100D4000CF92DF92EF92FF920F931F93CF93DF9397
:100D5000CDB7DEB7A1970FB6F894DEBF0FBECDBFFB
:100D60007C01C42EE52FCB01D22E19A221E02D1536
:100D700010F02AE0D22E8E010F5D1F4F8D2C912C8A
:100D8000A12CB12C6C2D7E2FA50194010E94470748
:100D90008C2DD29E80191124015011098A3014F42F
:100DA000805D01C0895CF801808321153105410512
:100DB000510521F0C22EE32FCA01E4CFB801C701CB
:100DC0000E945706A1960FB6F894DEBF0FBECDBFA6
:100DD000DF91CF911F910F91FF90EF90DF90CF9017
:100DE000BF90AF909F908F900895CF92DF92EF9237
:100DF000FF920F931F93CF93DF93EC016A017B0166
:100E00002115310579F4E881F9810190F081E02D17
:100E1000642FDF91CF911F910F91FF90EF90DF90A2
:100E2000CF9009942A303105E9F477FF1AC06DE2BA
:100E30000E946F068C0144275527BA014C195D09A1
:100E40006E097F092AE0CE010E949C06800F911F47
:100E5000DF91CF911F910F91FF90EF90DF90CF9096
:100E600008952AE0B701A601CE01DF91CF911F912D
:100E70000F91FF90EF90DF90CF900C949C069A0119
:100E8000AB01662757FD6095762F0C94F506A1E21D
:100E90001A2EAA1BBB1BFD010DC0AA1FBB1FEE1FF4
:100EA000FF1FA217B307E407F50720F0A21BB30B3F
:100EB000E40BF50B661F771F881F991F1A9469F7BB
:100EC00060957095809590959B01AC01BD01CF0117
:100ED0000895EE0FFF1F0590F491E02D0994F8940A
:020EE000FFCF42
:100EE20028000D00014C207374616E64203A0020CA
:100EF2002020200052207374616E64203A00522038
:100F020062656E64203A004C2062656E64203A008D
:100F12007374616E640063726F7563680077616CED
:100F22006B00303100303200303300000000009C92
:0C0F3200042F06480471045804910400C8
:00000001FF
