:100000000C947B010C94A3010C94A3010C94A30108
:100010000C94A3010C94A3010C94A3010C94A301D0
:100020000C94A3010C94A3010C94D70A0C94890995
:100030000C94A3010C94A3010C94A3010C94A301B0
:100040000C94A3010C94A3010C94A3010C94A301A0
:100050000C94A3010C94A3010C94A3010C9494059B
:100060000C94A3010C94A3010C94A3010C94A30180
:100070000C94A3010C94A3010C94A3010C94A30170
:100080000C94A3010C94A3010C94A3010C94A30160
:100090000C94A3010C94A3010C94A3010C94A30150
:1000A0000C94A3010C94A3010C94A301CF04D204DB
:1000B000C504C904F304F304F304D604DA04DE042B
:1000C000E404E804F304EE04070605040100080A4A
:1000D0000B0C0D090000000200080E0000030401D3
:1000E000000B000000000000000000000000000005
:1000F0000000040802011040804010204080408031
:1001000008020401804020100201108010204040AD
:1001100004040404040304050202020204030202AC
:100120000202060606060606040402020204000095
:100130000000250028002B002E00310000000000E8
:10014000240027002A002D003000000000000000DD
:1001500000002A2B28000000000000000000000022
:10016000000000000000000000002C9EB4A0A1A22E
:10017000A434A6A7A5AE362D3738271E1F2021226E
:1001800023242526B333B62EB7B89F848586878867
:10019000898A8B8C8D8E8F90919293949596979857
:1001A000999A9B9C9D2F3130A3AD35040506070815
:1001B000090A0B0C0D0E0F10111213141516171837
:1001C000191A1B1C1DAFB1B0B500090402000103D0
:1001D00000000009210101000122650007058403D8
:1001E00040000105010902A1010901A100850105E5
:1001F000091901290315002501950375018102954F
:10020000017505810305010930093109381581257A
:100210007F750895038106C0C005010906A1018507
:1002200002050719E029E7150025017501950881E8
:100230000295017508810395067508150025650569
:1002400007190029658100C000C18081C112010029
:100250000202000040412336800001010200011229
:10026000010002000000404123368000010102002D
:10027000011803410072006400750069006E006F90
:100280000020004C004C0043002203410072006437
:1002900000750069006E006F0020004C0065006F63
:1002A000006E006100720064006F0004030904081E
:1002B0000B0002020201000904000001020200001A
:1002C000052400100105240101010424020605246F
:1002D0000600010705810310004009040100020A1D
:1002E00000000007050202400000070583024000ED
:1002F0000000C0075E0D11241FBECFEFDAE0DEBFA5
:10030000CDBF11E0A0E0B1E0EEE3FBE102C005905B
:100310000D92A83AB107D9F722E0A8EAB1E001C0EE
:100320001D92AE33B207E1F712E0C6EFD2E004C08F
:100330002297FE010E94990DC23FD107C9F70E9482
:10034000CD070C949D0D0C94000082E10E94630582
:100350009093C8018093C70183E10E946305909345
:10036000C6018093C50184E10E9463059093C40196
:100370008093C30185E10E9463059093C20180933D
:10038000C10186E10E9463059093CC018093CB016B
:1003900087E10E9463059093CA018093C90120916F
:1003A000CB013091CC014091BB015091BC0142176F
:1003B0005307CCF46091B9017091BA012617370741
:1003C00094F46091B5017091B601681779075CF4F7
:1003D0006091B7017091B8018617970724F41092C5
:1003E000C0011092BF01E091B301F091B40160919E
:1003F000AF017091B001E217F3075CF5E091B10134
:10040000F091B2012E173F0724F5681779076CF4B5
:10041000E091AD01F091AE018E179F0734F4E1E059
:10042000F0E0F093C001E093BF01E091B501F091DD
:10043000B601E817F9076CF4E091B701F091B80143
:100440008E179F0734F4E2E0F0E0F093C001E093F0
:10045000BF0168177907BCF46091AD017091AE01DE
:100460008617970784F4421753076CF48091B901FB
:100470009091BA012817390734F482E090E0909304
:10048000C0018093BF018091C7019091C801209164
:10049000C5013091C6014091C3015091C4016091E2
:1004A000C1017091C2018C3BE2E09E07F4F42C3B49
:1004B000E2E03E0734F4E3E0F0E0F093C001E093C3
:1004C000BF014C3BE2E05E0734F4E4E0F0E0F0937F
:1004D000C001E093BF016C3BE2E07E0734F4E5E04D
:1004E000F0E0F093C001E093BF01243FE1E03E075C
:1004F00094F48132E3E09E0774F04132E3E05E075A
:1005000054F06132E3E07E0734F0E6E0F0E0F0938F
:10051000C001E093BF01443FE1E05E0794F4213263
:10052000E3E03E0774F08132E3E09E0754F061326D
:10053000E3E07E0734F0E7E0F0E0F093C001E09301
:10054000BF01643F71407CF48132934064F02132FA
:1005500033404CF04132534034F088E090E09093C7
:10056000C0018093BF018091BF019091C0010895A7
:10057000CF92DF92EF92FF920F931F93CF93DF936F
:100580008B01C0E0D0E06C01EE24D7FCE094FE2C9F
:10059000C017D10794F461E08DE00E942D05C701DA
:1005A000B6010E940D0660E08DE00E942D05C70196
:1005B000B6010E940D062196EBCFDF91CF911F91DE
:1005C0000F91FF90EF90DF90CF900895EF92FF9200
:1005D0000F931F93CF93DF9361E070E088EB9BE074
:1005E0000E94B80286E10E9463059093CC0180933B
:1005F000CB0187E10E9463058C019093CA0180932F
:10060000C901E090CB01F090CC0162E171E08CEE89
:1006100091E00E94740B4AE050E0B7018CEE91E04B
:100620000E94460C6CE171E08CEE91E00E94740B2C
:1006300061E271E08CEE91E00E94740B4AE050E0C0
:10064000B8018CEE91E00E94460C8CEE91E00E9485
:100650007D0B62E070E088EC90E00E94B80260EDF3
:1006600077E080E090E00E940D0661E070E088EBAA
:100670009BE00E94B80287E10E946305EC01909321
:10068000CA018093C9016BE271E08CEE91E00E9497
:10069000740B4AE050E0BE018CEE91E00E94460CE3
:1006A0008CEE91E00E947D0B62E070E088EC90E0BF
:1006B0000E94B80260ED77E080E090E00E940D06B5
:1006C00061E070E088EB9BE00E94B80286E10E9446
:1006D0006305EC019093CC018093CB0164E371E05E
:1006E0008CEE91E00E94740B4AE050E0BE018CEE6B
:1006F00091E00E94460C8CEE91E00E947D0B62E03E
:1007000070E088EC90E00E94B802209105013091E1
:100710000601C701821B930B9093BC018093BB0120
:10072000E20EF31EF092BA01E092B901C801821BF9
:10073000930B9093B6018093B501020F131F109392
:10074000B8010093B701CE01821B930B9093B401C3
:100750008093B3012C0F3D1F3093B2012093B10160
:100760009093B0018093AF013093AE012093AD011F
:10077000DF91CF911F910F91FF90EF9008950F930C
:100780001F9361E08DE00E94F40460E875E28CEE56
:1007900091E00E945D0D64E070E084EF91E00E94C2
:1007A000B8020E94E6020E94DE050091000110914D
:1007B00001012091020130910301600F711F821F1E
:1007C000931F6093A8017093A9018093AA0190934D
:1007D000AB0186ED91E01F910F910C94F706CF933A
:1007E000DF93EC01009731F463E686ED91E00E941F
:1007F0006B0712C08130910531F463E686ED91E01C
:100800000E94FD0609C08330910531F461E386ED55
:1008100091E00E94FD060EC061E386ED91E00E942A
:100820006B07C430D10531F462E386ED91E00E949C
:10083000FD060EC062E386ED91E00E946B07C530B5
:10084000D10531F463E386ED91E00E94FD060EC010
:1008500063E386ED91E00E946B07C630D10531F469
:1008600067E786ED91E00E94FD060EC067E786ED22
:1008700091E00E946B07279739F463E786ED91E0DA
:10088000DF91CF910C94FD0663E786ED91E0DF9157
:10089000CF910C946B070F931F938CEE91E00E9405
:1008A0008A0C813731F481E0809304016DE371E0BB
:1008B0000EC0873729F41092040163E571E007C088
:1008C000853649F481E08093AC0168E671E08CEEF6
:1008D00091E00E94910B8091AC0181110E94E6028F
:1008E00080910401882309F443C00E94DE05009131
:1008F000A8011091A9012091AA013091AB016017C4
:10090000710782079307A0F10E94A5018C018091D5
:10091000BD019091BE018017910751F1C8010E945D
:10092000EF031093BE010093BD016BE771E08CEE05
:1009300091E00E94740B4AE050E0B8018CEE91E027
:100940000E944E0C0E94DE050091000110910101F1
:100950002091020130910301600F711F821F931FCC
:100960006093A8017093A9018093AA019093AB01B1
:100970001F910F91089590E0FC013197EE30F10541
:1009800090F5EA5AFF4F0C94970D809180008F7775
:1009900003C0809180008F7D80938000089584B58E
:1009A0008F7702C084B58F7D84BD089580919000BB
:1009B0008F7707C0809190008F7D03C08091900059
:1009C000877F8093900008958091C0008F7703C047
:1009D0008091C0008F7D8093C00008958091C200F7
:1009E000877F8093C2000895CF93DF9390E0FC014E
:1009F000EE50FF4F2491FC01E05FFE4F849188236D
:100A000049F190E0880F991FFC01E45CFE4FA5912D
:100A1000B491825D9E4FFC01C591D4919FB7611145
:100A200008C0F8948C91209582238C93888182232E
:100A30000AC0623051F4F8948C91322F30958323A0
:100A40008C938881822B888304C0F8948C91822BAC
:100A50008C939FBFDF91CF9108950F931F93CF93F6
:100A6000DF931F92CDB7DEB7282F30E0F901EC52AB
:100A7000FF4F8491F901EE50FF4F1491F901E05FAF
:100A8000FE4F04910023C9F0882321F069830E945E
:100A9000BB046981E02FF0E0EE0FFF1FE25DFE4F27
:100AA000A591B4919FB7F8948C91611103C01095F2
:100AB000812301C0812B8C939FBF0F90DF91CF9139
:100AC0001F910F910895823108F08251E82FF0E0D4
:100AD000E853FF4FE49180917B00E3FB222720F94C
:100AE00030E095E0220F331F9A95E1F78F7D822B3E
:100AF00080937B00E7708091070120E4829FC00112
:100B00001124E82BE0937C0080917A00806480932C
:100B10007A0080917A0086FDFCCF80917800209148
:100B2000790090E0922B08951F920F920FB60F92CA
:100B300011242F933F938F939F93AF93BF938091F3
:100B4000CE019091CF01A091D001B091D10130910F
:100B5000CD0123E0230F2D3720F40196A11DB11DF7
:100B600005C026E8230F0296A11DB11D2093CD01DB
:100B70008093CE019093CF01A093D001B093D10187
:100B80008091D2019091D301A091D401B091D5016F
:100B90000196A11DB11D8093D2019093D301A09322
:100BA000D401B093D501BF91AF919F918F913F91A7
:100BB0002F910F900FBE0F901F9018952FB7F8949C
:100BC0006091CE017091CF018091D0019091D101BF
:100BD0002FBF08953FB7F8948091D2019091D3012F
:100BE000A091D401B091D50126B5A89B05C02F3F97
:100BF00019F00196A11DB11D3FBF6627782F892FDF
:100C00009A2F620F711D811D911D42E0660F771FA3
:100C1000881F991F4A95D1F70895CF92DF92EF92DE
:100C2000FF92CF93DF936B017C010E94EA05EB01F9
:100C3000C114D104E104F10479F00E94EA056C1BAF
:100C40007D0B683E7340A0F381E0C81AD108E1082B
:100C5000F108C851DC4FECCFDF91CF91FF90EF90BE
:100C6000DF90CF900895789484B5826084BD84B578
:100C7000816084BD85B5826085BD85B5816085BD97
:100C8000EEE6F0E0808181608083E1E8F0E01082B0
:100C9000808182608083808181608083E0E8F0E0F1
:100CA000808181608083E1E9F0E0808182608083DF
:100CB000808181608083E0E9F0E0808181608083D1
:100CC000E1ECF0E0808184608083808182608083B9
:100CD000808181608083E3ECF0E0808181608083AB
:100CE000E0ECF0E0808182608083E2ECF0E08081E3
:100CF00081608083EAE7F0E0808184608083808186
:100D0000826080838081816080838081806880832D
:100D10000895FF920F931F93CF93DF93EC01F62E6C
:100D2000E881F9810480F581E02D09958C01E88145
:100D3000F9810680F781E02D6F2DCE010995C8015C
:100D40009927DF91CF911F910F91FF900895FC019A
:100D500020812F5F208349E150E06AEC71E080E858
:100D60000C94170945E650E063EE71E080E80C94BE
:100D70001709EF92FF920F931F93CF93DF931F9268
:100D8000CDB7DEB789838B017A0141E050E0BE0127
:100D90006F5F7F4F84E00E947C08A701B80184E464
:100DA0000E947C080F90DF91CF911F910F91FF90CF
:100DB000EF900895FC0191818081813A31F481E0C6
:100DC000913091F0933089F411C0813271F49B30ED
:100DD00021F482818093090105C09A3031F4828127
:100DE0008093080181E00895089580E008950895B2
:100DF00048E050E082E00C94B906CF93DF93DC0129
:100E0000683818F0E8E7E60F25C0E62FF0E067FF46
:100E100011C0E058F10981E090E001C0880FEA9527
:100E2000EAF714969C911497982B14969C93149718
:100E3000E0E010C0E65BFE4FE491EE2309F440C011
:100E4000E7FF08C014968C911497826014968C93D7
:100E50001497EF7716968C9116978E1741F1179687
:100E60008C9117978E1719F118968C9118978E17E9
:100E7000F1F019968C9119978E17C9F01A968C91EA
:100E80001A978E17A1F01B968C911B978E1779F0ED
:100E900080E090E0ED01C80FD91F2E81211102C022
:100EA000EE8305C0019686309105A1F709C0BD010A
:100EB0006C5F7F4FCD010E94F80681E090E008C092
:100EC00081E090E013969C938E93129780E090E0DF
:100ED000DF91CF910895683818F0E8E7E60F25C054
:100EE000E62FF0E067FF12C0E058F10921E030E0A2
:100EF00001C0220FEA95EAF72095DC0114963C9197
:100F00001497322314963C93E0E00FC0E65BFE4F4B
:100F1000E491EE2329F1E7FF08C0DC0114962C913F
:100F200014972D7F14962C93EF7720E030E0EE237A
:100F300051F0DC01A20FB31F16964C9116974E1379
:100F400002C016961C922F5F3F4F2630310579F76D
:100F5000BC016C5F7F4F0E94F80681E090E008952D
:100F600080E090E00895FC011682178210861186B9
:100F7000128613861482BC016C5F7F4F0C94F806B6
:100F80001092E2011092D9011092D8018CE891E000
:100F90009093D7018093D60108950E94330683EE83
:100FA00091E00E94B90A0E94BF03C0E0D0E00E9415
:100FB0004B042097E1F30E940000F9CF615030F01C
:100FC0002091F100FC0120830196F8CF289884E657
:100FD0008093EA0108952FB7FC012083F89467708D
:100FE0006093E9000895CF93DF931F92CDB7DEB7EA
:100FF000682FCE0101960E94EB078091F200998143
:101000009FBF0F90DF91CF910895FF920F931F9391
:10101000CF93DF9300D0CDB7DEB7F62E8A01909143
:10102000E901992311F057FF03C08FEF9FEF2BC009
:10103000682FCE0101967A830E94EB078091F2001F
:1010400090E0A8017A81801791070CF4AC01EF2D94
:10105000F72FF40E84E6FE1639F028988093EA0103
:101060009091F1009193F7CF4115510521F08091B6
:10107000F200882321F089818FBFCA0104C08BE66A
:101080008093E800F8CF0F900F90DF91CF911F91E0
:101090000F91FF900895CF93DF931F92CDB7DEB7E6
:1010A00041E050E0BE016F5F7F4F0E94050801974D
:1010B00019F4898190E002C08FEF9FEF0F90DF91CC
:1010C000CF910895CF93DF931F92CDB7DEB7682FEE
:1010D000CE0101960E94EB079091E800892F807263
:1010E00095FF04C09091F20080E4891B99819FBF15
:1010F0000F90DF91CF9108954F925F926F927F9200
:101100008F929F92AF92BF92CF92DF92EF92FF9217
:101110000F931F93CF93DF931F92CDB7DEB7582E57
:101120007B01A42E952E8091E901882369F0042F7C
:10113000152F8AEFB82E852D8072782E9AE3892E8E
:10114000852D8074682E11C08FEF9FEF53C0852DC1
:101150000E946208482E81110CC0BA94A9F361E084
:1011600070E080E090E00E940D060115110579F70E
:1011700037C0282F30E0021713070CF4402EC42C80
:10118000D12C0C191D09652DCE0101960E94EB078B
:10119000772039F04A948FEF4816B1F01092F100A1
:1011A000F9CFF701842D57FE07C0815058F0949174
:1011B0009093F1003196F9CF815020F09191909366
:1011C000F100FACFEC0CFD1C8091E80085FF0FC008
:1011D0000115110511F461100AC089818FBFC5CFB7
:1011E0005D9884E68093EB018A2D992D03C080924F
:1011F000E800F3CF0F90DF91CF911F910F91FF90F7
:10120000EF90DF90CF90BF90AF909F908F907F90A6
:101210006F905F904F9008951092E9001092E8014E
:101220001092E7019093E6018093E5010895CF9332
:10123000DF93FB0120E030E0DEEF24173507A1F15A
:1012400087FF02C0C49101C0C081A091E701B091A5
:10125000E8016091E5017091E601A617B707B4F4C3
:101260009091E8009570E1F39091E80092FD1EC026
:10127000C093F1006091E7017091E8016F5F7F4FCB
:101280006F737727672B11F4D093E8006091E70123
:101290007091E8016F5F7F4F7093E8016093E70101
:1012A0002F5F3F4F3196C9CFC90102C08FEF9FEF2B
:1012B000DF91CF9108951F93CF93DF931F92CDB706
:1012C000DEB7162F2091E80022FFFCCF612F798333
:1012D0000E94DE078BEF8093E800812F7981972FA2
:1012E0000F90DF91CF911F910895CF93DF931F92BD
:1012F000CDB7DEB71982CE0101960E94FB0CCE015C
:1013000001960E94A706898190E00F90DF91CF910E
:1013100008951F920F920FB60F921124EF92FF9231
:101320000F931F932F933F934F935F936F937F93ED
:101330008F939F93AF93BF93EF93FF93CF93DF93DD
:10134000CDB7DEB76297DEBFCDBF1092E9008091C6
:10135000E80083FFE7C068E0CE010A960E94DE073E
:1013600082EF8093E8009A8597FF05C08091E8009E
:1013700080FFFCCF03C08EEF8093E800892F80763A
:1013800009F0B5C08B85811105C01092F100109253
:10139000F100C1C0282F2D7F213009F4BCC0853059
:1013A00049F48091E80080FFFCCF8C8580688093B1
:1013B000E300B1C0863009F072C02D85E888F98855
:1013C000223071F580E090E02A8B0E940C090E9487
:1013D000750999E08E010F5F1F4FF801392F1192A7
:1013E0003A95E9F799832A892A8391E09E8390E8C8
:1013F00098879AEF99872091E7013091E801275F5C
:101400003F4F3C832B838D83C7010E940C0949E029
:1014100050E0B80180E00E9417090E9475097BC066
:10142000C7012A8B0E940C092A89223241F482E2E8
:1014300090E00E94B206892B09F06DC070C0213087
:1014400069F488899989089711F42093E4018091BF
:10145000E401882389F06DE472E016C0233009F0BE
:101460005EC08C85882359F0823061F0813009F0AC
:1014700056C061E772E008C06FE572E005C06BEA34
:1014800072E002C069E872E06115710509F447C0B5
:10149000FB01449150E080E80E9417093CC087306E
:1014A00009F43DC0883021F481E08093F10033C01D
:1014B000893089F5937099F5E9E4F2E081E021E063
:1014C00096E38093E9002093EB0034913093EC0095
:1014D0009093ED008F5F3196853099F78EE780937A
:1014E000EA001092EA008C858093E90114C0888993
:1014F00099890E940C098E85811105C0CE010A963A
:101500000E94060D06C0823051F4CE010A960E9458
:10151000DA06882321F08EEF8093E80003C081E291
:101520008093EB0062960FB6F894DEBF0FBECDBF7E
:10153000DF91CF91FF91EF91BF91AF919F918F91EB
:101540007F916F915F914F913F912F911F910F91DB
:10155000FF90EF900F900FBE0F901F901895809303
:10156000E9008091F200882319F08AE38093E80073
:1015700008951092E90181E08093D70080EA80937A
:10158000D80082E189BD09B400FEFDCF61E070E0C2
:1015900080E090E00E940D0680E98093D8008CE006
:1015A0008093E2001092E000559A209A08951F92CD
:1015B0000F920FB60F9211242F933F934F935F9387
:1015C0006F937F938F939F93AF93BF93EF93FF930B
:1015D0008091E1001092E10083FF0FC01092E900BA
:1015E00091E09093EB001092EC0092E39093ED0069
:1015F0001092E90198E09093F00082FF26C083E00A
:101600000E94AF0A82E00E94F307882321F08CEE4B
:1016100091E00E94AD0C8091EB01882339F080911C
:10162000EB0181508093EB01882369F08091EA01FE
:10163000882359F08091EA0181508093EA01811159
:1016400004C0289A02C05D9AF1CFFF91EF91BF913B
:10165000AF919F918F917F916F915F914F913F914A
:101660002F910F900FBE0F901F901895CF92DF9281
:10167000EF92FF920F931F93CF93DF936C017A0148
:10168000EB01E60EF71E00E010E0CE15DF0561F07D
:101690006991D601ED91FC910190F081E02DC60198
:1016A0000995080F191FF1CFC801DF91CF911F9144
:1016B0000F91FF90EF90DF90CF9008956115710525
:1016C00081F0DB010D900020E9F7AD014150510997
:1016D000461B570BDC01ED91FC910280F381E02D5C
:1016E000099480E090E008950C945E0BDC01ED918C
:1016F000FC910190F081E02D09940F931F93CF93FB
:10170000DF93EC016DE00E94760B8C016AE0CE0164
:101710000E94760B800F911FDF91CF911F910F9147
:1017200008950F931F93CF93DF93EC010E945E0BFC
:101730008C01CE010E947D0B800F911FDF91CF9114
:101740001F910F9108958F929F92AF92BF92CF9267
:10175000DF92EF92FF920F931F93CF93DF93CDB75A
:10176000DEB7A1970FB6F894DEBF0FBECDBF7C01E8
:10177000C42EE52FCB01D22E19A221E02D1510F099
:101780002AE0D22E8E010F5D1F4F8D2C912CA12CA3
:10179000B12C6C2D7E2FA50194010E94750D8C2D0E
:1017A000D29E80191124015011098A3014F4805DF1
:1017B00001C0895CF801808321153105410551057F
:1017C00021F0C22EE32FCA01E4CFB801C7010E9465
:1017D0005E0BA1960FB6F894DEBF0FBECDBFDF91B2
:1017E000CF911F910F91FF90EF90DF90CF90BF901E
:1017F000AF909F908F900895CF92DF92EF92FF92DB
:101800000F931F93CF93DF93EC016A017B012115A6
:10181000310579F4E881F9810190F081E02D642FA0
:10182000DF91CF911F910F91FF90EF90DF90CF90BC
:1018300009942A303105E9F477FF1AC06DE20E945D
:10184000760B8C0144275527BA014C195D096E09A6
:101850007F092AE0CE010E94A30B800F911FDF9128
:10186000CF911F910F91FF90EF90DF90CF9008954F
:101870002AE0B701A601CE01DF91CF911F910F9110
:10188000FF90EF90DF90CF900C94A30B9A01AB01E7
:10189000662757FD6095762F0C94FC0B0F931F93D2
:1018A000CF93DF93EC019A01AB01662757FD60955A
:1018B000762F0E94FC0B8C01CE010E947D0B800FC5
:1018C000911FDF91CF911F910F91089580913A025E
:1018D00090913B0220913C0230913D02821B930B80
:1018E0008F739927089520913A0230913B0280919D
:1018F0003C0290913D022817390749F0E0913C02E3
:10190000F0913D02E650FE4F808190E008958FEF08
:101910009FEF089520913A0230913B0280913C0262
:1019200090913D0228173907A9F0E0913C02F0910F
:101930003D02E650FE4F808120913C0230913D02F5
:101940002F5F3F4F2F73332730933D0220933C028C
:1019500090E008958FEF9FEF0895CF93DF93C091AC
:101960003A02D0913B022196CF73DD2780913C0251
:1019700090913D02C817D90799F082E00E944B0868
:101980008F3F2FEF920761F0E0913A02F0913B0216
:10199000E650FE4F8083D0933B02C0933A02DFCFE4
:1019A000DF91CF91089583E00C94AF0A0F931F93BA
:1019B000CF93DF931F92CDB7DEB78C0169838091FF
:1019C0001101882359F041E050E0BE016F5F7F4F65
:1019D00083E00E947C08181619063CF081E090E034
:1019E000F8019383828380E090E00F90DF91CF91A4
:1019F0001F910F910895FC0120812E5F208342E406
:101A000050E06FEA72E080E80C941709FC018181D4
:101A10009081913A59F4813209F04BC047E050E08F
:101A20006AE071E080E00E94170945C0913209F038
:101A300040C0803239F467E070E08AE091E00E94B3
:101A40005B0939C0823209F034C082818093110170
:101A500080910A0190910B01A0910C01B0910D01B0
:101A6000803B9440A105B10531F58091110180FDC5
:101A700012C087E797E790930108809300082BE056
:101A800088E190E00FB6F894A895809360000FBEAF
:101A90002093600010C088E10FB6F8948093600036
:101AA000109260000FBEA8951092010810920008D5
:101AB00002C080E0089581E0089508951092EF013A
:101AC0001092EE0188EE93E0A0E0B0E08093F00188
:101AD0009093F101A093F201B093F3018AE991E0B0
:101AE0009093ED018093EC010895A1E21A2EAA1BB8
:101AF000BB1BFD010DC0AA1FBB1FEE1FFF1FA217BE
:101B0000B307E407F50720F0A21BB30BE40BF50BBA
:101B1000661F771F881F991F1A9469F76095709543
:101B2000809590959B01AC01BD01CF010895EE0F0A
:0E1B3000FF1F0590F491E02D0994F894FFCF6B
:101B3E006400000001320001010100E1000000001C
:101B4E0000004C207374616E64203A002020202027
:101B5E000052207374616E64203A00522062656EEA
:101B6E0064203A004C2062656E64203A0053746122
:101B7E007274204C697374656E2073746174652E73
:101B8E002E2E0053746F70204C697374656E207323
:101B9E00746174652E2E2E0073657474696E6720E1
:101BAE006B6E65652076616C75650063757272206B
:101BBE007374617465202000000000008906360BE6
:101BCE00FD066B07B30700000000D60C360B660C43
:081BDE008A0C730CD30CAD0C52
:00000001FF
